:100000000C942A000C9447000C9447000C94470071
:100010000C9447000C9447000C9489030C94420301
:100020000C9447000C9412040C9447000C94F002BA
:100030000C9447000C9447000C9447000C94470024
:100040000C9447000C9447000C9447000C94470014
:100050000C94470011241FBECFE5D8E0DEBFCDBF12
:1000600010E0A0E6B0E0E8E2F9E002C005900D92F1
:10007000A637B107D9F720E0A6E7B0E001C01D928E
:10008000A439B207E1F70E946D020C9492040C941B
:100090000000442379F1413009F05FC0813079F0EC
:1000A00028F08230A9F08330E1F008952AB381E08E
:1000B00090E001C0880F6A95EAF7822B2CC027B325
:1000C00081E090E001C0880F6A95EAF7822B2EC08C
:1000D00024B381E090E001C0880F6A95EAF7822B93
:1000E00030C021B381E090E001C0880F6A95EAF743
:1000F000822B32C0813089F028F08230C9F0833001
:1001000011F108952AB381E090E001C0880F6A954B
:10011000EAF7809582238ABB089527B381E090E0B7
:1001200001C0880F6A95EAF78095822387BB0895FE
:1001300024B381E090E001C0880F6A95EAF78095CA
:10014000822384BB089521B381E090E001C0880F31
:100150006A95EAF78095822381BB0895442379F15B
:10016000413009F05FC0813079F028F08230A9F089
:100170008330E1F008952BB381E090E001C0880F57
:100180006A95EAF7822B2CC028B381E090E001C089
:10019000880F6A95EAF7822B2EC025B381E090E0A4
:1001A00001C0880F6A95EAF7822B30C022B381E044
:1001B00090E001C0880F6A95EAF7822B32C0813047
:1001C00089F028F08230C9F0833011F108952BB303
:1001D00081E090E001C0880F6A95EAF7809582235C
:1001E0008BBB089528B381E090E001C0880F6A9529
:1001F000EAF78095822388BB089525B381E090E0DB
:1002000001C0880F6A95EAF78095822385BB08951F
:1002100022B381E090E001C0880F6A95EAF78095EB
:10022000822382BB0895CF93C82F40E064E081E031
:100230000E94AE0040E065E081E00E94AE0040E038
:1002400066E081E00E94AE008BB39C2F907F8F70A0
:10025000892B8BBB41E066E081E00E94AE008FEC11
:1002600097E00197F1F700C0000040E066E081E010
:100270000E94AE002BB330E1C39FC0011124922F26
:100280009F70892B8BBB41E066E081E00E94AE004D
:100290008FEC97E00197F1F700C0000040E066E0C6
:1002A00081E00E94AE008FE097E20197F1F700C075
:1002B0000000CF91089541E064E081E00E94490090
:1002C00041E065E081E00E94490041E066E081E0B4
:1002D0000E94490041E064E080E00E94490041E062
:1002E00065E080E00E94490041E066E080E00E9415
:1002F000490041E067E080E00E9449002FEF80E77D
:1003000092E0215080409040E1F700C0000083E37C
:100310000E94130182E30E94130188E20E941301EC
:100320008CE00E94130181E00E94130186E00E948C
:10033000130182E00C941301CF93C82F41E064E0D5
:1003400081E00E94AE0040E065E081E00E94AE00E6
:1003500040E066E081E00E94AE008BB39C2F907F6E
:100360008F70892B8BBB41E066E081E00E94AE007C
:100370008FEC97E00197F1F700C0000040E066E0E5
:1003800081E00E94AE002BB330E1C39FC001112475
:10039000922F9F70892B8BBB41E066E081E00E9429
:1003A000AE008FEC97E00197F1F700C0000040E04D
:1003B00066E081E00E94AE008FE097E20197F1F7DE
:1003C00000C00000CF910895CF93DF9300D0CDB748
:1003D000DEB790E8998390EC9A83FE01E80FF11D57
:1003E0008181860F0F900F90DF91CF910C941301B4
:1003F0000F931F93CF938C01C0E0F801EC0FF11D18
:100400008081882321F00E949C01CF5FF6CFCF919D
:100410001F910F9108954F925F926F927F928F92EA
:100420009F92AF92BF92CF92DF92EF92FF924B01D9
:100430005C0197FF0BC08DE20E949C01B094A094D8
:1004400090948094811C911CA11CB11C61E070E00F
:1004500080E090E03AE0432E512C612C712C811405
:100460009104A104B104A9F0AAE0B0E09B01AC01A1
:100470000E9478046B017C01C501B401A3019201C3
:100480000E9459046C0D7D1D8E1D9F1D49015A014E
:10049000E6CF2AE0C22ED12CE12CF12C623071057E
:1004A000810591056CF0A70196010E94590449014C
:1004B0005A0180E3860F0E949C01B401C501EECF72
:1004C000FF90EF90DF90CF90BF90AF909F908F9074
:1004D0007F906F905F904F9008950E94DA026CE3D6
:1004E00070E080E090E00E94E1020E947A030E94A6
:1004F0005B01812C82E1982E8AE7A82EB12C809195
:100500007C008330F1F78091850090918600A09166
:100510008700B0918800C0907D00D0907E00E09070
:100520007F00F0908000C81AD90AEA0AFB0A4091BD
:1005300081005091820060918300709184009A0143
:10054000AB01281B390B4A0B5B0BA4E6B0E00E9401
:100550007804A70196010E94370429013A0160E05E
:1005600080E00E94E40180E690E00E94F801C3016F
:10057000B2010E940B0285E20E949C0160E081E0D2
:100580000E94E4018DE690E00E94F801C501B401EB
:10059000A70196010E943704CA01B9010E940B020B
:1005A00083E790E00E94F80110927C0089B7806296
:1005B00089BFA5CF8F9A85B596B58A6696BD85BD4C
:1005C0000895982F872F762F662724E630E040E0A5
:1005D00050E00E9437042150310934BD23BD0895F5
:1005E0001F920F920FB60F9211242F933F934F93A8
:1005F0005F936F937F938F939F93AF93BF93EF938B
:10060000FF938091780090917900A0917A00B09149
:100610007B000196A11DB11D809378009093790015
:10062000A0937A00B0937B0040918D0050918E0092
:1006300060918F007091900084179507A607B70707
:1006400081F48091910082BF10927800109279001D
:1006500010927A0010927B00E0919200F09193004A
:100660000995FF91EF91BF91AF919F918F917F91EC
:100670006F915F914F913F912F910F900FBE0F900F
:100680001F9018951F920F920FB60F9211242F935F
:100690003F934F935F936F937F938F939F93AF930A
:1006A000BF93EF93FF93809176009091770001962E
:1006B0008130910529F0909377008093760009C0EE
:1006C0001092770010927600E0919200F0919300E2
:1006D0000995FF91EF91BF91AF919F918F917F917C
:1006E0006F915F914F913F912F910F900FBE0F909F
:1006F0001F9018958E9886B597B597BD86BD8EB517
:1007000081648EBD89B7846289BF8FB780688FBFCF
:1007100008951F920F920FB60F9211242F933F93BB
:100720004F935F936F937F938F939F93AF93BF93F9
:10073000EF93FF9380917C008F5F80937C0080918A
:100740007C008130B9F486B597B5A0E0B0E0809325
:10075000850090938600A0938700B0938800109244
:10076000890010928A0010928B0010928C008EB536
:100770008F7B22C080917C00823001F5E6B5F7B511
:100780002091890030918A0040918B0050918C001B
:10079000AFEFBFEF0E947804DC01CB018E0F9F1FEB
:1007A000A11DB11D8093810090938200A0938300CE
:1007B000B09384008EB580648EBD23C080917C0090
:1007C0008330F9F4E6B5F7B52091890030918A00BD
:1007D00040918B0050918C00AFEFBFEF0E947804E6
:1007E000DC01CB018E0F9F1FA11DB11D80937D00E9
:1007F00090937E00A0937F00B093800089B78F7D97
:1008000089BFFF91EF91BF91AF919F918F917F91A0
:100810006F915F914F913F912F910F900FBE0F906D
:100820001F9018951F920F920FB60F9211248F935D
:100830009F93AF93BF938091890090918A00A0917C
:100840008B00B0918C000196A11DB11D8093890091
:1008500090938A00A0938B00B0938C00BF91AF91CE
:100860009F918F910F900FBE0F901F901895A1E24E
:100870001A2EAA1BBB1BFD010DC0AA1FBB1FEE1F1A
:10088000FF1FA217B307E407F50720F0A21BB30B65
:10089000E40BF50B661F771F881F991F1A9469F7E1
:1008A00060957095809590959B01AC01BD01CF013D
:1008B0000895052E97FB1EF400940E94700457FDC6
:1008C00007D00E94370407FC03D04EF40C94700448
:1008D00050954095309521953F4F4F4F5F4F08956C
:1008E00090958095709561957F4F8F4F9F4F08959C
:1008F0000E948304A59F900DB49F900DA49F800D2E
:10090000911D11240895A29FB001B39FC001A39F20
:10091000700D811D1124911DB29F700D811D112438
:08092000911D0895F894FFCF2A
:1009280044555459204379636C653A2000467265F2
:06093800713A00487A004C
:00000001FF
