:100000000C942A000C9447000C9447000C94470071
:100010000C9447000C9447000C94B5030C946E03A9
:100020000C9447000C943F040C9447000C941C0360
:100030000C9447000C9447000C9447000C94470024
:100040000C9447000C9447000C9447000C94470014
:100050000C94470011241FBECFE5D8E0DEBFCDBF12
:1000600010E0A0E6B0E0E2E8F9E002C005900D92F1
:10007000AA37B107D9F720E0AAE7B0E001C01D9286
:10008000A839B207E1F70E94B0020C94BF040C94A7
:1000900000004423B9F1413009F06BC0813089F090
:1000A00028F08230C9F0833011F108952AB381E03D
:1000B00090E002C0880F991F6A95E2F7822B8ABBF5
:1000C000089527B381E090E002C0880F991F6A95D8
:1000D000E2F7822B87BB089524B381E090E002C051
:1000E000880F991F6A95E2F7822B84BB089521B38C
:1000F00081E090E002C0880F991F6A95E2F7822B99
:1001000081BB0895813091F028F08230D9F083309E
:1001100029F108952AB381E090E002C0880F991F69
:100120006A95E2F7809582238ABB089527B381E020
:1001300090E002C0880F991F6A95E2F780958223AC
:1001400087BB089524B381E090E002C0880F991F17
:100150006A95E2F78095822384BB089521B381E0FC
:1001600090E002C0880F991F6A95E2F7809582237C
:1001700081BB08954423B9F1413009F06BC081304F
:1001800089F028F08230C9F0833011F108952BB343
:1001900081E090E002C0880F991F6A95E2F7822BF8
:1001A0008BBB089528B381E090E002C0880F991FAF
:1001B0006A95E2F7822B88BB089525B381E090E031
:1001C00002C0880F991F6A95E2F7822B85BB0895BC
:1001D00022B381E090E002C0880F991F6A95E2F790
:1001E000822B82BB0895813091F028F08230D9F0C3
:1001F000833029F108952BB381E090E002C0880F8D
:10020000991F6A95E2F7809582238BBB089528B3E6
:1002100081E090E002C0880F991F6A95E2F780950F
:10022000822388BB089525B381E090E002C0880F47
:10023000991F6A95E2F78095822385BB089522B3C2
:1002400081E090E002C0880F991F6A95E2F78095DF
:10025000822382BB0895CF93C82F40E061E081E004
:100260000E94BA0040E062E081E00E94BA0040E0F3
:1002700063E081E00E94BA008BB39C2F907F8F7067
:10028000892B8BBB41E063E081E00E94BA008FECD8
:1002900097E00197F1F700C0000040E063E081E0E3
:1002A0000E94BA002BB330E1C39FC0011124922FEA
:1002B0009F70892B8BBB41E063E081E00E94BA0014
:1002C0008FEC97E00197F1F700C0000040E063E099
:1002D00081E00E94BA008FE097E20197F1F700C039
:1002E0000000CF91089541E061E081E00E94490063
:1002F00041E062E081E00E94490041E063E081E08A
:100300000E94490041E064E080E00E94490041E031
:1003100065E080E00E94490041E066E080E00E94E4
:10032000490041E067E080E00E9449002FEF80E74C
:1003300092E0215080409040E1F700C0000083E34C
:100340000E942B0182E30E942B0188E20E942B0174
:100350008CE00E942B0181E00E942B0186E00E942C
:100360002B0182E00E942B010895CF93C82F41E01A
:1003700061E081E00E94BA0040E062E081E00E941A
:10038000BA0040E063E081E00E94BA008BB39C2F8A
:10039000907F8F70892B8BBB41E063E081E00E94EE
:1003A000BA008FEC97E00197F1F700C0000040E041
:1003B00063E081E00E94BA002BB330E1C39FC0012B
:1003C0001124922F9F70892B8BBB41E063E081E069
:1003D0000E94BA008FEC97E00197F1F700C000008F
:1003E00040E063E081E00E94BA008FE097E201976D
:1003F000F1F700C00000CF910895CF93DF9300D0B4
:10040000CDB7DEB790E8998390EC9A83FE01E80FB0
:10041000F11D8181860F0E942B010F900F90DF91BB
:10042000CF9108950F931F93CF93FC018081882370
:1004300059F08F01C0E00E94B501CF5FF801EC0FC9
:10044000F11D80818111F7CFCF911F910F910895F8
:100450004F925F926F927F928F929F92AF92BF92D4
:10046000CF92DF92EF92FF926B017C0199235CF4B3
:100470008DE20E94B501F094E094D094C094C11C28
:10048000D11CE11CF11C1C141D041E041F040CF0E3
:1004900053C061E070E080E090E00F2EFAE08F2E14
:1004A000912CA12CB12CF02DDC01CB01880F991FD0
:1004B000AA1FBB1F2C013D01440C551C661C771C58
:1004C000440C551C661C771C480E591E6A1E7B1E68
:1004D000C701B601A50194010E948604640D751D33
:1004E000861D971DC22ED32EE42EF52E1C141D043E
:1004F0001E041F04CCF26230710581059105E4F001
:100500000F2EFAE08F2E912CA12CB12CF02DA501ED
:1005100094010E948604C22ED32EE42EF52E80E391
:10052000860F0E94B5016C2D7D2D8E2D9F2D623082
:100530007105810591055CF7FF90EF90DF90CF90FA
:10054000BF90AF909F908F907F906F905F904F90F3
:1005500008958F9A85B596B58A6696BD85BD08952E
:100560000E94A90288E990E094BD83BD0E94A60381
:100570000E9473010F2E812CF2E19F2EFAE7AF2E1D
:10058000B12CF02D809180008330F1F780918900AB
:1005900090918A00A0918B00B0918C00C090810056
:1005A000D0908200E0908300F0908400C81AD90AAD
:1005B000EA0AFB0A4091850050918600609187000D
:1005C000709188009A01AB01281B390B4A0B5B0B19
:1005D000A4E6B0E00E94B404A70196010E9464045E
:1005E00029013A0160E080E00E94FD0180E690E090
:1005F0000E941202C301B2010E94280285E20E94F9
:10060000B50160E081E00E94FD018DE690E00E946E
:100610001202C501B401A70196010E946404CA0137
:10062000B9010E9428028AE70E94B5011092800059
:1006300089B7806289BFA6CF1F920F920FB60F9223
:1006400011242F933F934F935F936F937F938F93D7
:100650009F93AF93BF93EF93FF9380917C00909112
:100660007D00A0917E00B0917F000196A11DB11D7B
:1006700080937C0090937D00A0937E00B0937F00D8
:10068000409191005091920060919300709194007C
:1006900084179507A607B70781F48091950082BF5C
:1006A00010927C0010927D0010927E0010927F00CC
:1006B000E0919600F09197000995FF91EF91BF911D
:1006C000AF919F918F917F916F915F914F913F91EA
:1006D0002F910F900FBE0F901F9018951F920F92A1
:1006E0000FB60F9211242F933F934F935F936F9305
:1006F0007F938F939F93AF93BF93EF93FF938091DB
:100700007A0090917B0001968130910529F09093B9
:100710007B0080937A0009C010927B0010927A00CF
:10072000E0919600F09197000995FF91EF91BF91AC
:10073000AF919F918F917F916F915F914F913F9179
:100740002F910F900FBE0F901F9018958E9886B521
:1007500097B597BD86BD8EB581648EBD89B784621D
:1007600089BF8FB780688FBF08951F920F920FB611
:100770000F9211242F933F934F935F936F937F9327
:100780008F939F93AF93BF93EF93FF9380918000DC
:100790008F5F80938000809180008130C1F486B5A6
:1007A00097B5A0E0B0E08093890090938A00A09371
:1007B0008B00B0938C0010928D0010928E001092DE
:1007C0008F00109290008EB58F7B8EBD47C08091B8
:1007D0008000823001F5E6B5F7B520918D003091AB
:1007E0008E0040918F0050919000AFEFBFEF0E94BC
:1007F000B404DC01CB018E0F9F1FA11DB11D80939E
:10080000850090938600A0938700B09388008EB5F2
:1008100080648EBD23C0809180008330F9F4E6B5FA
:10082000F7B520918D0030918E0040918F0050914E
:100830009000AFEFBFEF0E94B404DC01CB018E0F3C
:100840009F1FA11DB11D8093810090938200A093F2
:100850008300B093840089B78F7D89BFFF91EF91AA
:10086000BF91AF919F918F917F916F915F914F91C8
:100870003F912F910F900FBE0F901F9018951F92D0
:100880000F920FB60F9211248F939F93AF93BF9344
:1008900080918D0090918E00A0918F00B09190007A
:1008A0000196A11DB11D80938D0090938E00A093A1
:1008B0008F00B0939000BF91AF919F918F910F9057
:1008C0000FBE0F901F901895A1E21A2EAA1BBB1BFA
:1008D000FD010DC0AA1FBB1FEE1FFF1FA217B3070C
:1008E000E407F50720F0A21BB30BE40BF50B661F22
:1008F000771F881F991F1A9469F7609570958095E6
:1009000090959B01AC01BD01CF010895052E97FB89
:100910001EF400940E949D0457FD07D00E946404B9
:1009200007FC03D04EF40C949D04509540953095EF
:1009300021953F4F4F4F5F4F08959095809570954B
:1009400061957F4F8F4F9F4F0895A29FB001B39F36
:10095000C001A39F700D811D1124911DB29F700DC8
:10096000811D1124911D08950E94A504A59F900D3D
:10097000B49F900DA49F800D911D11240895F894AB
:02098000FFCFA7
:1009820044555459204379636C653A200046726598
:0A0992007175656E63793A2000006C
:00000001FF
